:100000000C94D1050C9418060C9418060C94180640
:100010000C9418060C9418060C9418060C941806E8
:100020000C9418060C9418060C947A1D0C944C1E13
:100030000C94AA180C9418060C9418060C94180624
:100040000C9418060C9418060C9418060C941806B8
:100050000C9418060C9412190C9418060C9418069B
:100060000C9418060C9418060C9418060C94180698
:100070000C9418060C9418060C9418060C94180688
:100080000C9418060C9418060C9418060C94180678
:100090000C9418060C9418060C9418060C94180668
:1000A0000C9418060C9418060C941806C106C30686
:1000B000CE06C506C706C906CB06CD06D006D206B3
:1000C000D406DF06D606D806DA06DC06DE06E1062A
:1000D000E20EE20E140F140F7410741074107410EA
:1000E000540F7410F50FF50F6410741074106D1028
:1000F0000210021002100210021002100210021070
:10010000021002100210021002100210021002105F
:1001100011101F1026102D103710F710F7100911AD
:1001200009110011091109110911F710F710051132
:10013000091109110511B91EE01ED21FE01ED21FC0
:100140002C1F4F1FD21FA51FB41F29001E001F0008
:100150002000210022002300240025002600270083
:100160002D002E0000002A002B00000014001A00B1
:100170000800150017001C0018000C0012001300E6
:100180002F00300031003900000004001600070085
:1001900009000A000B000D000E000F0033003400B0
:1001A000280000000000E1001D001B0006001900EF
:1001B000050011001000360037000000E100520079
:1001C0003800E000E3000000E200000000002C0026
:1001D0000000000000000151E000500051004F00FD
:1001E000005C0100010001000100010001000100AC
:1001F00001000100010001000100000001000100F8
:1002000000000100010001000100010001000100E7
:1002100001000100010001000100010001000000D7
:1002200001000100010001000100010001000100C6
:1002300001000100010001000000000001000100B8
:1002400001000100010001000100010001000100A6
:100250000000010001000100010001000000010098
:10026000000000000100000000000000010001008B
:100270000100010001000100010001000100010076
:100280000100010001000100010001000100010066
:100290000000010001000000010001000100010058
:1002A0000100010001000100010001000100010046
:1002B0000100010000000100010001000100010037
:1002C0000100010001000100010001000100000027
:1002D0000000010001000100010001000100010017
:1002E0000100010001000000010001000100010007
:1002F00001000000010000000000010000000000FB
:1003000000000100010001000100010001000100E6
:1003100001000100010001000100010001000100D5
:1003200001000100010000000100010000000100C7
:1003300001000100010001000100010001000100B5
:1003400001000100010001000100000001000100A6
:100350000100010001000100010001000100010095
:100360000100010000000000010001000100010087
:100370000100010001000100010001000000010076
:100380000100010001000100000001000000000068
:100390000100000000000000010001000100010058
:1003A0000100010001000100010001000100010045
:1003B0000100010001000100010001000000010036
:1003C0000100000001000100010001000100010026
:1003D0000100010001000100010001000100010015
:1003E0000000010001000100010001000100010006
:1003F00001000100010001000100000000000100F7
:1004000001000100010001000100010001000100E4
:1004100001000000010001000100010001000000D6
:1004200001000000000001000000000000000100C9
:1004300001000100010001000100010001000100B4
:1004400001000100010001000100010001000100A4
:100450000100000001000100000001000100010096
:100460000100010001000100010001000100010084
:100470000100010001000000010001000100010075
:100480000100010001000100010001000100010064
:100490000000000001000100010001000100010056
:1004A0000100010001000100000001000100010045
:1004B0000100010000000100000000000100000038
:1004C0000000000001000100010001000100010026
:1004D0000100010001000100010001000100010014
:1004E0000100010001000100000001000100000006
:1004F00001000100010001000100010001000100F4
:1005000001000100010001000100010000000100E4
:1005100001000100010001000100010001000100D3
:1005200001000100010000000000010001000100C5
:1005300001000100010001000100010001000000B4
:1005400001000100010001000100000001000000A5
:100550000000010000000000000001000100010097
:100560000100010001000100010001000100010083
:100570000100010001000100010001000100000074
:100580000100010000000100010001000100010064
:100590000100010001000100010001000100010053
:1005A0000100000001000100010001000100010044
:1005B0000100010001000100010001000000000035
:1005C0000100010001000100010001000100010023
:1005D0000100010000000100010001000100010014
:1005E0000000010000000000010000000000000009
:1005F00001000100010001000100010001000100F3
:1006000001000100010001000100010001000100E2
:1006100001000100000001000100000001000100D4
:1006200001000100010001000100010001000100C2
:1006300001000100010001000000010001000100B3
:1006400001000100010001000100010001000100A2
:100650000100000000000100010001000100010094
:100660000100010001000100010000000100010083
:100670000100010001000000010000000000010075
:100680000000000000000100010001000100010065
:100690000100010001000100010001000100010052
:1006A0000100010001000100010000000100010043
:1006B0000000010001000100010001000100010033
:1006C0000100010001000100010001000100000023
:1006D0000100010001000100010001000100010012
:1006E0000100010001000100000000000100010004
:1006F00001000100010001000100010001000100F2
:1007000000000100010001000100010000000100E3
:1007100000000000010000000000000001000100D6
:1007200001000100010001000100010001000100C1
:1007300001000100010001000100010001000100B1
:1007400000000100010000000100010001000100A3
:100750000100010001000100010001000100010091
:100760000100010000000100010001000100010082
:100770000100010001000100010001000100000072
:100780000000010001000100010001000100010062
:100790000100010001000000010001000100010052
:1007A0000100000001000000000001000000000046
:1007B0000000010001000100010001000100010032
:1007C0000100010001000100010001000100010021
:1007D0000100010001000000010001000000010013
:1007E0000100010001000100010001000100010001
:1007F00001000100010001000100000001000100F2
:1008000001000100010001000100010001000100E0
:1008100001000100000000000100010001000100D2
:1008200001000100010001000100010000000100C1
:1008300001000100010001000000010000000000B3
:1008400001000000000000000100010001000100A3
:100850000100010001000100010001000100010090
:100860000100010001000100010001000000010081
:100870000100000001000100010001000100010071
:100880000100010001000100010001000100010060
:100890000000010001000100010001000100010051
:1008A0000100010001000100010000000000010042
:1008B0000100010001000100010001000100010030
:1008C0000100000001000100010001000100000022
:1008D0000100000000000100000000000000010015
:1008E0000100010001000100010001000100010000
:1008F00001000100010001000100010001000100F0
:1009000001000000010001000000010001000100E1
:1009100001000100010001000100010001000100CF
:1009200001000100010000000100010001000100C0
:1009300001000100010001000100010001000100AF
:1009400000000000010001000100010001000100A1
:100950000100010001000100000001000100010090
:100960000100010000000100000000000100000083
:100970000000000001000100010001000100010071
:10098000010001000100010001000100010001005F
:100990000100010001000100000001000100000051
:1009A000010001000100010001000100010001003F
:1009B0000100010001000100010001000000010030
:1009C000010001000100010001000100010001001F
:1009D0000100010001000000000001000100010011
:1009E0000100010001000100010001000100000000
:1009F00001000100010001000100000001000000F1
:100A000000000100000000000000010001000100E2
:100A100001000100010001000100010001000100CE
:100A200001000100010001000100010001000000BF
:100A300001000100000001000100010001000100AF
:100A4000010001000100010001000100010001009E
:100A5000010000000100010001000100010001008F
:100A60000100010001000100010001000000000080
:100A7000010001000100010001000100010001006E
:100A8000010001000000010001000100010001005F
:100A90000000010000000000010000000000000054
:100AA000010001000100010001000403300000000A
:100AB000140375006E0064006500660069006E0036
:100AC0006500640000000E0364007A007400650095
:100AD0006300680000000403090409023B000201EE
:100AE00000A0FA090400000103010100092111011D
:100AF00000012240000705810308000A09040100E3
:100B00000103000000092111010001223B0007053B
:100B1000820320000A1201100100000008EDFE60AF
:100B20006001000102030105010906A10185050517
:100B30000719E029E71500250195087501810205CF
:100B40000819012905950575019102950175039113
:100B5000010507190029EF1500250195F0750181A0
:100B600002C005010906A101050719E029E71500E2
:100B70002501950875018102950175088101050817
:100B800019012905950575019102950175039101DA
:100B90000507190029FF150026FF00950675088135
:100BA00000C011241FBECFEFDAE0DEBFCDBF04B618
:100BB00003FE27C080911E0290911F02A091200287
:100BC000B09121028730904BA740B04BD1F41092E6
:100BD0001E0210921F02109220021092210214BED7
:100BE00084B7877F84BF0FB6F894A8958091600082
:100BF000886180936000109260000FBEE0E0F8E32F
:100C0000099511E0A0E0B1E0E0EAF0E402C005904F
:100C10000D92A232B107D9F722E0A2E2B1E001C001
:100C20001D92AE31B207E1F70E949E1A0C944E203D
:100C30000C9400000C9421060C94220680E090E0B5
:100C400008950895089581E00895089581E0089534
:100C50000C9423061F93CF93DF9300D000D01F92F4
:100C6000CDB7DEB749835A8320914E0189819A819D
:100C7000211112C0662349F00E941C16182F682FFC
:100C800089819A810E94C11503C00E94F015182F16
:100C900069817A81812F04C00E941C1669817A8142
:100CA0000F900F900F900F900F90DF91CF911F91A9
:100CB0000C946A07FC0140815181628173818481B7
:100CC0000C942A060E944C17811102C00E94C6177C
:100CD0000C941A060C941C060C9425060C946C06B5
:100CE00008950E94E7100E9470062FEF84E39CE0B5
:100CF000215080409040E1F700C000000C9438196A
:100D00000F931F93CF93DF938C010E945A06EC013F
:100D1000B8010E942806882309F4D5C0B801CE0185
:100D20000E946F0B882309F4CEC0C531FCE5DF07B4
:100D300008F07BC0C2308CE5D80708F452C0F80137
:100D40008281882309F454C00E944C17811102C08B
:100D50000E94C6170E945F1790E090931002809344
:100D60000F02FE01E350FC45E231F10530F4EA5A8E
:100D7000FF4F80910F020C94062080910F0281603A
:100D800027C0826025C0846023C0806121C080624A
:100D90001FC080641DC080681BC08460886018C04C
:100DA0008E7F16C08D7F14C08B7F12C08F7E10C0C7
:100DB0008F7D0EC08F7B0CC08F770AC08B7F877FA3
:100DC00007C087FB222720F991E0922790FB87F943
:100DD00080930F0280910F020E9463170E94E71018
:100DE00072C0C115ECE5DE0751F0C130DC4579F089
:100DF000C801DF91CF911F910F910C942606F80145
:100E00008281882309F45FC00E9471065CC0F801EA
:100E10008281882309F457C08091E601982F90952C
:100E200090FB80F98093E6014EC0CC3D8CE5D8075D
:100E300039F4F8018281882309F445C080E00DC0AF
:100E4000CD3DECE5DE0760F0CD3D8CE5D80791F5B2
:100E5000F80182818823B9F182E00E943D1B33C0F2
:100E6000C631DC4529F60E949C16282FF8018281A4
:100E70004091000150910101882379F02A7A91E094
:100E800009F490E090932201911102C069E201C03F
:100E900065E3CA010E942D180AC0809122018111C8
:100EA00002C069E201C065E3CA010E9438180E94CD
:100EB000E81609C0CE3DDC4509F09ACFF8018281E1
:100EC00081110E94C61780E0DF91CF911F910F9191
:100ED000089508959FE0799FF00111249BE4899F74
:100EE000E00DF11D1124E60FF11DEE0FFF1FE65B73
:100EF000FE4F859194910895880F991FFC01E65546
:100F0000F54F859194910895CF93DF930E946A07DE
:100F10000E943B09EC01811520E59207F0F581154F
:100F200030E4930708F024C1883E910500F5803E27
:100F3000910508F09CC1883A910570F4853A9105B5
:100F400008F09FC08130910509F491C108F442C1B5
:100F5000049708F08CC13EC18F3B910508F49CC0FA
:100F6000803C910508F436C1805C9109F4C081157C
:100F700040E2940758F4C11581E0D80708F077C122
:100F8000C03FD10508F426C1D06571C1811520E3A9
:100F9000920708F0E4C09F70DEC0811535E5930725
:100FA00008F044C0811544E5940708F0F8C0C11565
:100FB00082E5D80708F5C11521E5D20708F0DBC0A6
:100FC0008C2F837021E030E002C0220F331F8A95FE
:100FD000E2F73C68CE0174E0969587957A95E1F743
:100FE0008370382BCF70C695C69580E2C89FE0010C
:100FF0001124C22BD32B3BC12C2F26952695CE0135
:1010000083709927C115D34508F0BAC040E2249FE8
:1010100090011124C1E0D0E002C0CC0FDD1F8A9501
:10102000E2F72C2B3D2BE901DC6821C1811549E554
:101030009407A0F4C11588E5D80708F0B5C0C1151C
:1010400026E5D20708F0C6C08C2F0E94B8098F7120
:10105000C82FD0E0DC2FCC27D06209C181153AE53A
:10106000930708F4A6C090568115904208F0B2C0CC
:101070008D2F8F710E94B809DD27D0628F71D82B18
:10108000F6C0853A910509F4A8C0863A910509F0A1
:10109000A7C0C2E8D0E4EBC0883A910509F4A3C028
:1010A000893A910509F4A2C08A3A910509F4A1C0D0
:1010B0008B3A910509F4A0C08C3A910509F49FC0C0
:1010C0008B3B910509F49EC08C3B910509F49DC0B2
:1010D0008D3A910509F49CC0803B910509F49BC0B1
:1010E0008E3A910509F49AC08F3A910509F499C096
:1010F000813B910509F498C0823B910509F497C0A2
:10110000833B910509F496C0843B910509F495C091
:10111000853B910509F494C0863B910509F493C081
:10112000873B910509F492C0883B910509F491C071
:10113000893B910509F490C08D3B910509F48FC05E
:101140008E3B910509F48EC08A3B910509F48DC050
:10115000C0E0D4E48CC00E947C07EC0188C09927D1
:10116000D3FF03C0EC01D86C82C0EC01D06C7FC00F
:10117000DF70D06A7CC0DC2FCC27C16FD06A77C00B
:1011800040E2249F90011124C1E0D0E002C0CC0FC6
:10119000DD1F8A95E2F7C22BD32BDA6868C0D82FFF
:1011A000CC27C46FD06A63C0DC2FCC27C06FD06A55
:1011B0005EC08F700E94B80994E0D695C7959A9545
:1011C000E1F7CF70D0E0DC2FCC27D06A8F70806E33
:1011D000C82B4DC0C0E0D0E04AC0C1E8D0E447C051
:1011E000C3E8D0E444C0C2EED4E441C0C9EED4E4C4
:1011F0003EC0CAEED4E43BC0C5EBD4E438C0C6EB75
:10120000D4E435C0C3EBD4E432C0C4EBD4E42FC083
:10121000C7EBD4E42CC0CCECD4E429C0CDECD4E4AE
:1012200026C0C3E8D5E423C0CAE8D5E420C0C2E99B
:10123000D5E41DC0C4E9D5E41AC0C1E2D6E417C0A4
:10124000C3E2D6E414C0C4E2D6E411C0C5E2D6E4D9
:101250000EC0C6E2D6E40BC0C7E2D6E408C0CFE6B3
:10126000D4E405C0C0E7D4E402C0CAE2D6E4CE01AB
:10127000DF91CF9108958238910549F1B0F481331F
:10128000910509F458C048F48932910509F44EC01B
:101290008A32910509F454C008958533910509F403
:1012A00040C08933910599F00895833E910529F155
:1012B00038F4803E910591F0823E9105A1F00895A9
:1012C000863E9105F9F0873E910531F10895209110
:1012D0000F0220FD3AC021FD38C0089580910F0211
:1012E00080FD35C032C080910F0282FF32C08091F4
:1012F0000F0284FD30C083EE39C080910F0282FD61
:1013000028C0F5CF80910F0283FF27C080910F0284
:1013100084FD21C087EE2AC080910F0283FD1DC08D
:10132000F5CF80910F0285FD1AC01BC080910F027E
:1013300085FD17C014C080910F0286FD14C015C032
:1013400080910F0286FD11C00EC080EE0FC089E3B0
:101350000DC082EE0BC080E009C086EE07C089E2B6
:1013600005C085E303C08AE201C081E390E00895EF
:1013700090910F0292FF0DC0282F2871283019F488
:10138000877F846006C0282F2471243011F48B7F5E
:10139000886093FF0DC0282F2871283119F4877EAB
:1013A000846106C0282F2471243111F48B7E88615A
:1013B00094FD877E0895E82FF0E0EE0FFF1FED5DAE
:1013C000FE4F8081918108950895ACE1B1E041E044
:1013D00050E025E02A0F8D91E82FE295EF70F0E0C4
:1013E00031A18F70BA0102C0660F771F8A95E2F7AC
:1013F000CB01962F9095932391A392A1892B82A341
:101400002A13E9CFADE0B1E041E050E02FE02A0F30
:101410008D91E82FE295EF70F0E031A18F70BA0165
:1014200002C0660F771F8A95E2F7CB01962F909541
:10143000932391A392A1892B82A32A13E9CFEDE2F2
:10144000F1E0A3E2B1E0119211921D921D9271E0C0
:10145000E733F707C1F785E00E94C70A0C946206DC
:101460005F926F927F928F929F92AF92BF92CF9234
:10147000DF92EF92FF920F931F93CF93DF930CE1D4
:1014800011E0ADE2B1E0612CEE24E394F12C5D01BA
:101490008D909C90119711961C921E92E801899153
:1014A0008E01E82FE295EF70F0E091A18F70A70117
:1014B00001C0440F8A95EAF7892F842B81A382A16A
:1014C000542E5094852182A3D0EADA95F1F78DE06D
:1014D000C82E81E0D82E80E090E0E60179906E0180
:1014E000272D22952F7030E0E90168A12D913C91C4
:1014F000119770E0D72DDF7002C075956795DA956A
:10150000E2F760FD08C0B701082E02C0660F771F22
:101510000A94E2F702C060E070E0262B372B1196A8
:101520003C932E9301968F309105B9F681A1D52D6C
:10153000D823D1A382A1482B42A3129681E0F501C2
:10154000208131818216930609F480E0682AF1E057
:10155000A733BF0709F09BCF262D45E063E271E07A
:101560008DE291E00E94C80A0E946A06862DDF91F2
:10157000CF911F910F91FF90EF90DF90CF90BF9090
:10158000AF909F908F907F906F905F900895089597
:10159000FF920F931F93CF93DF93F82E092F162FEF
:1015A000D72FC42F222349F081E0809339010E9474
:1015B000DC1890933801809337018091390188239A
:1015C000D9F080913701909138010E94E818069770
:1015D00098F0EF2DF02FA12FBD2F80E090E04C2F41
:1015E00050E08417950734F4219131912D933D9368
:1015F0000196F7CF10923901DF91CF911F910F9192
:10160000FF9008950F931F93CF93DF93C62FD42F8E
:10161000022FFC0182818823C9F060933C010E9463
:10162000DC1890933B0180933A0180E28C0F883064
:1016300008F050C0C77081E001C0880FCA95EAF772
:10164000DF91CF911F910F910C949E0E10913C0150
:10165000161330C080913A0190913B010E94E81826
:10166000883C910538F5C0E2CD0F1D17B9F080E236
:10167000810F883040F4177081E001C0880F1A95FF
:10168000EAF70E94A50EC83048F481E09D2F9770BC
:1016900001C0880F9A95EAF70E949E0E802F0E9443
:1016A0008B0EC830B8F4D77081E001C0880FDA958E
:1016B000EAF70AC080E28C0F883060F4C77081E0DE
:1016C00001C0880FCA95EAF7DF91CF911F910F9162
:1016D0000C94A50EDF91CF911F910F9108959C015D
:1016E000CB01203F4CE53407F9F078F4283DFCE5C8
:1016F0003F07B9F0293D4CE5340711F1273D3C4542
:1017000031F526E241EE61EE1EC0223FFCE53F07C7
:1017100099F070F0233F3C45D1F427E245EE66EEA8
:1017200012C027E245EE0EC026E241EE60EE0BC08D
:1017300027E245EE64EE07C026E241EE62EE03C00A
:1017400028E241E065EE0E94020B80E00895FC0172
:101750008281882319F010923C01089581E0089558
:1017600090934201809341010895E0914101F091ED
:101770004201309721F00190F081E02D099480E042
:101780000895E0914101F0914201309799F0209144
:101790000C01222359F020910F0227FF07C0DC0122
:1017A0002C9111962C93119725E02C930280F381B4
:1017B000E02D0994089520913F0130914001821756
:1017C000930771F09093400180933F01E0914101B4
:1017D000F0914201309721F00680F781E02D0994C5
:1017E000089520913D0130913E018217930771F0D9
:1017F00090933E0180933D01E0914101F0914201BF
:10180000309721F00084F185E02D0994089585B783
:10181000806885BF85B7806885BF0895089508955D
:101820000C940F0C08950C94120C0E94070C0E944B
:101830000E0C0C94100C81E008950E94D3180E94A5
:10184000E5090E945C190C94130C4F925F927F92F1
:101850008F929F92AF92BF92CF92DF92EF92FF92C0
:101860000F931F93CF93DF93CDB7DEB72A970FB6B1
:10187000F894DEBF0FBECDBF0E94300A0E941B0C41
:10188000811111C08FEF89838A831B820E94DC182B
:101890008160782F9D838C8349815A816B818D81F2
:1018A0000E94E10C57C094E4C92E91E0D92E00E0CB
:1018B00010E0AA24A394B12C702E802F0E94DB0983
:1018C0004C01F601419051906F0148265926411470
:1018D000510431F40F5F1F4F0530110569F7D2CF66
:1018E0008091E60181FD0E94E40920E030E075016D
:1018F000022E02C0EE0CFF1C0A94E2F7C7018421FD
:101900009521892B09F12E837F828E209F2091E0E3
:10191000892809F490E098870E94DC188160782F6C
:101920009A8789874E815F8168858A850E94E10C4C
:10193000000F111FF801EC5BFE4F80819181E826BA
:10194000F926F182E08206C02F5F3F4F2F3031052C
:1019500071F6C0CF109143010E94B50B1817D9F052
:101960000E94B50B809343012A960FB6F894DEBF10
:101970000FBECDBFDF91CF911F910F91FF90EF90E0
:10198000DF90CF90BF90AF909F908F907F905F90AF
:101990004F900C946E062A960FB6F894DEBF0FBED9
:1019A000CDBFDF91CF911F910F91FF90EF90DF900E
:1019B000CF90BF90AF909F908F907F905F904F900F
:1019C0000895CF93DF93CDB7DEB72B970FB6F8947A
:1019D000DEBF0FBECDBF4F83588769877A878B875D
:1019E000DE01119686E0FD0111928A95E9F785E006
:1019F000FE01379601900D928A95E1F749815A814F
:101A00006B817C818D819E810E9491132B960FB6F4
:101A1000F894DEBF0FBECDBFDF91CF910895FC01DA
:101A2000808191810E945D160895882309F413C175
:101A3000682F8238C1F40E94B50B81FD0CC169E3A7
:101A400080910001909101010E942D180E94E816DA
:101A50002FEF81EE94E0215080409040E1F700C0EC
:101A6000000069E319C08338F9F40E94B50B80FDCA
:101A7000F2C063E580910001909101010E942D1850
:101A80000E94E8162FEF81EE94E0215080409040B4
:101A9000E1F700C0000063E5809100019091010131
:101AA0000E9438180C94E8168438C1F40E94B50BD3
:101AB00082FDD1C067E480910001909101010E94F4
:101AC0002D180E94E8162FEF81EE94E021508040FF
:101AD0009040E1F700C0000067E4DECF8CEF860F96
:101AE000813A38F480910001909101010E942D18F3
:101AF000D9CF80E2860F883048F4677081E001C05A
:101B0000880F6A95EAF70E949F16CCCF8BE5860F67
:101B1000833070F4653A29F0663A31F083E890E05A
:101B200005C081E890E002C082E890E00C94DB0BF5
:101B300088E5860F873108F08EC0683A09F445C001
:101B4000693A09F445C06A3A09F445C06B3A09F4A8
:101B500045C06C3A09F445C06B3B09F445C06C3B89
:101B600009F445C06D3A09F445C0603B09F445C02D
:101B70006E3A09F445C06F3A09F445C0613B09F477
:101B800045C0623B09F445C0633B09F445C0643B72
:101B900009F445C0653B09F445C0663B09F445C0FE
:101BA000673B09F445C0683B09F445C0693B09F44B
:101BB00045C06D3B09F445C06E3B09F445C06A3B26
:101BC00009F445C080E090E044C082EE90E041C05E
:101BD00089EE90E03EC08AEE90E03BC085EB90E05D
:101BE00038C086EB90E035C083EB90E032C084EBE8
:101BF00090E02FC087EB90E02CC08CEC90E029C0E7
:101C00008DEC90E026C083E891E023C08AE891E063
:101C100020C082E991E01DC084E991E01AC081E210
:101C200092E017C083E292E014C084E292E011C017
:101C300085E292E00EC086E292E00BC087E292E07D
:101C400008C08FE690E005C080E790E002C08AE21D
:101C500092E00C94F10B0895882309F45BC0682F7F
:101C6000823879F40E94B50B81FF54C069E38091FA
:101C70000001909101010E942D180E94E81669E36D
:101C800010C08338B1F40E94B50B80FF43C063E5F8
:101C900080910001909101010E942D180E94E81688
:101CA00063E580910001909101010E9438180C9425
:101CB000E816843879F40E94B50B82FF2BC067E4E4
:101CC00080910001909101010E942D180E94E81658
:101CD00067E4E7CF8CEF860F813A18F380E2860F36
:101CE000883048F4677081E001C0880F6A95EAF790
:101CF0000E94A516DCCF8BE5860F833020F480E0B0
:101D000090E00C94DB0B685A673120F480E090E09F
:101D10000C94F10B0895CF93C82F0E94150DC93371
:101D200049F42FEF83EC99E0215080409040E1F797
:101D300000C000008C2FCF910C942C0E882321F032
:101D40000E949F160C94E8160895882321F00E94A3
:101D5000A5160C94E81608954F925F926F927F92A9
:101D6000BF92CF92DF92EF92FF920F931F93CF9388
:101D7000DF937C01062FC72FFC01D581D295DF7040
:101D8000128111110E94BC160E949516882379F0C9
:101D9000112369F080E2800F883048F082E00E94D1
:101DA00033170E94951691E0B82EB92601C0B12CC8
:101DB000CC2EC2948FE0C822D12CF601E859FF4FF7
:101DC0000C9406208C2F807FCF70882311F0C29551
:101DD000C07F112399F0CC2309F461C180E2800F08
:101DE000883010F0011104C08C2F0E949F1603C090
:101DF0008C2F0E94AF160E94E81651C1802F0E94BE
:101E00002C0ECC2309F470C180E2800F883010F0D2
:101E1000011104C08C2F0E94A51603C08C2F0E94B4
:101E2000B5160E94E81660C18C2F807FCF7080327B
:101E300011F0C295C07F002319F00130C9F022C013
:101E4000112371F0DD2341F0D13031F40E94CF161F
:101E50008C2B0E94D51648C10E94CF168C2B1DC01A
:101E6000DD2319F0D13009F43FC10E94DE161AC0FB
:101E7000112321F0D63008F037C10EC0D53008F05C
:101E800033C110C0112361F0DD2331F0F7018581EA
:101E900080FF05C18F7085838C2F0E949E0E24C108
:101EA000D1110EC18C2FBAC08C2F837009F04BC09A
:101EB000111126C1202F229526952770220F220F5F
:101EC000602F6F70862F90E0A0E0B0E02C013D0104
:101ED000022E04C0440C551C661C771C0A94D2F7D1
:101EE00004FF10C08FE090E0A0E0B0E004C0880FD5
:101EF000991FAA1FBB1F2A95D2F780959095A09590
:101F0000B09503C080E090E0DC01C695C695C37033
:101F1000D0E0BC01CD016429752986299729C230FA
:101F2000D10559F0C330D10559F0219719F00E941D
:101F3000D614E6C00E94C414E3C00E94E814E0C0B6
:101F40000E94C214DDC0112319F08C2F817001C0D2
:101F50008695882309F4D4C0202F229526952770D2
:101F6000220F220F602F6F70862F90E0A0E0B0E06C
:101F70002C013D01022E04C0440C551C661C771C2C
:101F80000A94D2F704FF10C08FE090E0A0E0B0E028
:101F900004C0880F991FAA1FBB1F2A95D2F78095EE
:101FA0009095A095B09503C080E090E0DC01C695C7
:101FB000C695C370D0E0BC01CD016429752986297E
:101FC0009729C230D10559F0C330D10559F0219776
:101FD00019F00E949C1594C00E948A1591C00E941D
:101FE000AE158EC00E94FD148BC0802F90E0FC01C6
:101FF000E05EF109E531F10508F04DC0E858FF4F0A
:102000000C9406200F708C2F8F71112321F00E94E9
:102010002315802F42CF0E944415802F0E94A50EC9
:1020200063C0112341F0D53008F05EC08C2F8F7152
:102030000E94691559C0D63008F056C0F7CF112359
:1020400039F08C2F8F710E9423154EC01123C9F3D4
:102050008C2F8F710E94441547C0112329F08C2FBB
:102060008F710E940E1540C00E9409153DC01123BA
:1020700049F0CF718C2F0E94231563E08C2F0E94B2
:102080001E1732C081E00E943317D23068F182E01F
:102090000E94331729C0112331F0DD2391F2802FE4
:1020A0000E94150D21C0DD2399F2093349F4FFEF99
:1020B00023EC89E0F15020408040E1F700C00000AF
:1020C000802F0E942C0E10C04C2F4F70602FC70124
:1020D0000E941E060E94351417C04C2F4F70602FAF
:1020E000C7010E94690710C098E0C916D10441F0E9
:1020F0005CF0FAE0CF1AD10822E0C216D10420F435
:102100000E94B50B0E946E06BB20F1F00E94911652
:1021100080FD1AC0F70112820E948B160E942315BF
:10212000C7010E94B2100E948B16DF91CF911F91C0
:102130000F91FF90EF90DF90CF90BF907F906F90C6
:102140005F904F900C944415DF91CF911F910F91A8
:10215000FF90EF90DF90CF90BF907F906F905F9057
:102160004F9008950F931F93CF93DF93EC018881D5
:1021700099812B813C81232BB9F09F3F11F48F3F34
:1021800099F0CE010E948006882371F068817981E0
:102190008A810E9468168C010E94C0150E94C11499
:1021A000B801CE010E94AC0EDF91CF911F910F912B
:1021B00008950E94BC160E94CC160C94E8168091DB
:1021C0000001909101010E9443180C94D9100E94C3
:1021D000AC160C94DF10E92FE295EF70F0E0329727
:1021E000EE30F105B0F4E357FF4F0C940620803F2A
:1021F00091F018F4803E68F40EC0843F51F40BC097
:10220000803E48F0813F29F406C093FB882780F97F
:10221000089580E0089581E008950E945D160E946F
:10222000EB100895CF93DF9300D000D01F92CDB76D
:10223000DEB70F900F900F900F900F90DF91CF911E
:102240000895CF93DF9300D000D000D0CDB7DEB794
:1022500026960FB6F894DEBF0FBECDBFDF91CF91AB
:1022600008951F93CF93DF93C0914F0116E08091A3
:102270005001C81799F0D0E01C9FF0011D9FF00D90
:102280001124EF5AFE4F4081518162817381848114
:1022900095810E9421112196C770E9CFDF91CF91DE
:1022A0001F910895409181015091820160918301B5
:1022B0007091840180918501909186010C94211187
:1022C0008091860182958F7009F054C080918301BE
:1022D000882309F44FC080914F01A0915001609173
:1022E0008101709182014091840150918501B6E095
:1022F0008A1709F43FC090E041155105C1F17F3FB5
:1023000011F46F3FA1F1B89FF001B99FF00D1124B6
:10231000EF5AFE4F218172132AC02081621327C019
:102320002281211124C0238134812417350710F420
:1023300021503109241B350B283C3105C0F4209174
:1023400086012F7020612093860126E0289FF001EE
:10235000299FF00D1124EA5AFE4F80818F70806111
:10236000808381E891E00E94B2100C9431110196B3
:102370008770BECF0895CF92DF92EF92FF920F93B6
:102380001F93CF93DF93CDB7DEB762970FB6F89464
:10239000DEBF0FBECDBF8C0185E0F801DE011D96CA
:1023A00001900D928A95E1F7D8014C9111965C91BC
:1023B000119712966C9112971396CD90DC9014970A
:1023C0003091810170918201809184019091850109
:1023D000009709F46BC17F3F19F43F3F09F466C1D0
:1023E000E0908301EE2009F4C0C020918601C81658
:1023F000D90628F0F601E81BF90BCF0104C080953F
:1024000090958C0D9D1DFF24F394883C910578F0E8
:10241000F12C207F09F0C6C07C2DD98AC88A898911
:102420000E94121181E891E00E94B210B1C0822F87
:10243000807F09F046C0751314C0341312C06111B7
:1024400010C02F702061209386010E94521181E8F4
:1024500091E00E94B21080918601D80115968C936C
:102460002EC0CD2819F15F3F11F44F3FF9F0F62E41
:1024700061111CC080914F012091500136E08217FC
:1024800009F45AC090E0389FF001399FF00D1124F3
:10249000EF5AFE4F7181571306C07081471303C076
:1024A0007281711103C001968770E9CFF62E662301
:1024B00009F427C180918601816080938601F12C07
:1024C00020C1751308C0341306C0611104C0809187
:1024D0008601D801C3C04D875E878D859E856A8B36
:1024E0000E940D116A898823E1F16623D1F12091C0
:1024F0008601822F82958F7090E0029774F0809110
:1025000081019091820198878F831986DB86CA8624
:102510002C87CE0107960E94B21086E0F801A1E850
:10252000B1E001900D928A95E1F70E9460110E943E
:102530005211FF24F394E5C04D875E878D859E85FB
:102540000E945D16292F22952F7030E02230310530
:102550000CF0CBC09F7009F0C5C0805E883008F4D5
:10256000D0C0C8010E94B210E4CFC816D90608F442
:1025700053C0F601E81BF90BCF01883C910508F424
:1025800050C0F12C7C2DD98AC88A89890E941211E9
:10259000E1E8F1E086E0DF011D928A95E9F70E940B
:1025A0005211AFC0751314C0341312C0611110C0A2
:1025B00080918601F8018583C8010E94B21086E0EF
:1025C000E1E8F1E0DF011D928A95E9F7FE2C99C060
:1025D0004D875E878D859E856A8B0E940D116A8965
:1025E000882309F4BECF662309F4BBCF209186016E
:1025F000822F82958F7090E002970CF48ECF80919D
:102600008101909182019A8389831B82DD82CC8231
:102610002E83CE0101967FCF809590958C0D9D1DC8
:10262000ACCFF62E662309F49CCF75132EC034135D
:102630002CC02091860120FD1FC0822F82958F70B3
:10264000D9F0D80115962C9315978F3049F08F5FEC
:10265000982F9295907F822F8F70892B15968C934F
:10266000C8010E94B21086E0F801A1E8B1E0019033
:102670000D928A95E1F793CF86E0F801A1E8B1E0E9
:1026800001900D928A95E1F73CC04D875E878D855C
:102690009E850E940D11811140CF8091860181603D
:1026A00080938601C8010E94B2102BC0662309F4F2
:1026B00058CF4D875E878D859E850E940D11F82E1F
:1026C000882309F44ECF86E0F801A1E8B1E001903B
:1026D0000D928A95E1F781E891E00E940F0D0E942A
:1026E00060115DCF811139CF0CC0243031050CF061
:1026F00038CF9F7009F431CFF8019581907F09F0B0
:102700002CCF8F2D62960FB6F894DEBF0FBECDBFD3
:10271000DF91CF911F910F91FF90EF90DF90CF90BD
:1027200008951F93CF93DF93CDB7DEB72C970FB6E5
:10273000F894DEBF0FBECDBF4F83588769877A8775
:102740008B879C87CE0107960E94BB11882369F076
:102750008F8198852A853B85232BF1F19F3F09F0D6
:1027600063C08F3F09F060C037C086E0FE01379636
:10277000DE01119601900D928A95E1F76F817885BF
:10278000EA85FB85309741F17F3F11F46F3F21F1DE
:102790002091500130E0C90101968770992740913E
:1027A0004F0150E08417950709F447C069837A8385
:1027B000FD83EC8396E0929FD001939FB00D11248E
:1027C000AF5ABE4FFE01319601900D929A95E1F7F6
:1027D000809350010E94311116E080914F01909139
:1027E00050018917C1F1189FC00111248F5A9E4FC3
:1027F0000E94BB11882379F1E0914F011E9FF001E7
:102800001124EF5AFE4F408151816281738184818E
:1028100095810E94211180914F0190E0019687706F
:10282000992780934F01D9CF4F81588569857A8543
:102830008B859C850E942111CFCF0E94E7101092BA
:10284000500110924F01E1E8F1E086E0DF011D92B6
:102850008A95E9F7C1CF2C960FB6F894DEBF0FBE6C
:10286000CDBFDF91CF911F910895EF92FF920F930B
:102870001F93CF93DF938C01892B09F46CC0F12C4B
:10288000EE24E394E8012196F8018491843740F422
:10289000843008F051C0813081F0823019F15BC082
:1028A000853709F444C0A8F19CE7980F903708F0E9
:1028B00052C08F770E942C0E41C00E5F1F4FFE0149
:1028C000C49180E28C0F883048F4C7708E2D01C00F
:1028D000880FCA95EAF70E94BF1614C08C2F0E9479
:1028E000150D2DC00E5F1F4FFE01C49180E28C0FAD
:1028F000883058F4C7708E2D01C0880FCA95EAF74A
:102900000E94C5160E94E8161AC08C2F0E942C0E39
:1029100016C00E5F1F4FFE01C491CC2381F08FE9DA
:102920009FE00197F1F700C00000C150F6CF0E5FA5
:102930001F4FFE01F49003C00E94150D8E018F2DD4
:10294000882309F49FCFEFE9FFE03197F1F700C04A
:1029500000008150F5CFDF91CF911F910F91FF9033
:10296000EF90089508950C94B2140E94B3146093EC
:10297000BD017093BE018093BF019093C0010C9480
:10298000D91008950C94B5140F931F930091BD01B5
:102990001091BE012091BF013091C001602B712BBD
:1029A000822B932B1F910F910C94B5140F931F93AF
:1029B0000091BD011091BE012091BF013091C00175
:1029C00060237123822393231F910F910C94B514DC
:1029D0000F931F930091BD011091BE012091BF0183
:1029E0003091C00160277127822793271F910F9193
:1029F0000C94B51408950C94FA140E94FB1460937F
:102A0000B9017093BA018093BB019093BC010C94FF
:102A1000D91060E070E0CB010C94FD140F931F936C
:102A200041E050E060E070E08A019B0104C0000FCB
:102A3000111F221F331F8A95D2F7C901B8011F91B8
:102A40000F910C94FD140F931F9341E050E060E050
:102A500070E004C0440F551F661F771F8A95D2F798
:102A60008091B9019091BA01A091BB01B091BC01D4
:102A70008A019B01082B192B2A2B3B2BC901B8017A
:102A80001F910F910C94FD140F931F9341E050E0A0
:102A900060E070E004C0440F551F661F771F8A95E1
:102AA000D2F740955095609570958091B9019091BD
:102AB000BA01A091BB01B091BC018A019B0108231E
:102AC00019232A233B23C901B8011F910F910C94AC
:102AD000FD140F931F9341E050E060E070E004C0EC
:102AE000440F551F661F771F8A95D2F78091B90151
:102AF0009091BA01A091BB01B091BC018A019B01E8
:102B0000082719272A273B27C901B8011F910F91D0
:102B10000C94FD140F931F930091B9011091BA0109
:102B20002091BB013091BC01602B712B822B932B28
:102B30001F910F910C94FD140F931F930091B901F5
:102B40001091BA012091BB013091BC016023712327
:102B5000822393231F910F910C94FD140F931F93C5
:102B60000091B9011091BA012091BB013091BC01D3
:102B700060277127822793271F910F910C94FD14D2
:102B800008952FE0929F800D1124A82FA695A69559
:102B9000A695877051E001C0550F8A95EAF785E048
:102BA000A89FD001112420E030E070E0F901EA0F85
:102BB000FB1FE957FE4F4081CB01022E02C09695C4
:102BC00087950A94E2F78170992781958427852358
:102BD000842780832F5F3F4F2530310539F70895D3
:102BE0002FE0929F800D1124682F6695669566955B
:102BF000982F977085E0689FB001112440E050E065
:102C000080E0FA01E60FF71FE957FE4F208130E020
:102C1000092E02C0369527950A94E2F721703327D2
:102C2000042E01C0220F0A94EAF7822B4F5F5F4FF8
:102C30004530510531F70895BF92CF92DF92EF9260
:102C4000FF920F931F93CF93DF938C01C090BD0130
:102C5000D090BE01E090BF01F090C0018091B90119
:102C60009091BA01A091BB01B091BC01C82AD92AA8
:102C7000EA2AFB2ACFE1D0E0D701C6010C2E04C01E
:102C8000B695A795979587950A94D2F780FF07C0C8
:102C9000BC2EB8018C2F0E948407019719F421974C
:102CA00058F7B12C8B2DDF91CF911F910F91FF9091
:102CB000EF90DF90CF90BF900895CF93DF93EC011A
:102CC0000E941C16BE010E948407DF91CF910895D7
:102CD0001F93CF93DF93EB0190914E01992321F045
:102CE000CB010E945D1613C0882349F0CB010E94DE
:102CF0001C16182F682FCE010E94C11504C0CB01ED
:102D00000E94F015182FBE01812F0E948407DF91C9
:102D1000CF911F9108958091C101859585958595E5
:102D200008958091C101877008959091C1019770B5
:102D300081E009F480E008958091E5010895909183
:102D4000E501892B8093E501089580959091E50137
:102D500089238093E50108951092E50108959091EB
:102D6000E401892B8093E401089580959091E4011A
:102D700089238093E40108951092E40108959091CD
:102D8000E301892B8093E301089580959091E301FD
:102D900089238093E30108951092E30108958091BF
:102DA000C201089508950C94D2169091C20198170B
:102DB00021F08093C2010C94D31608958091C20132
:102DC000882329F01092C20180E00C94D316089554
:102DD000E0910001F09101018091E5018083E09193
:102DE0000001F091010190818091E401892B8083A1
:102DF000E0910001F091010190818091E301892B24
:102E000080838091C201882381F0E0910001F091DC
:102E100001019081892B80838091000190910101B3
:102E20000E94C81781110E94DE16809100019091C6
:102E300001010C94C10B08950C941B1798E0899F15
:102E400090011124262B2093C1010E94231580910B
:102E5000C1018595859585950C941C171092C1012B
:102E600080E00C941C172091C101809582238093EF
:102E7000C101982F977079F430E0482F082E000C8C
:102E8000550B2417350739F08595859585950E9452
:102E900044150C942E17089580E090E00E941420B1
:102EA00021E08D3E9E4F09F020E0822F089582E0C0
:102EB00090E00C940C2083E090E00C940C2084E0D3
:102EC00090E00C940C20682F84E090E00C941A2081
:102ED000AB01BC018FE090E00C942C20AB01BC0155
:102EE00083E190E00C942C2060E070E0CB010C9426
:102EF0006E1760E070E0CB010E9468170C947417A5
:102F00006DEE7EEF80E090E00E94382060E082E08D
:102F100090E00E941A2060E083E090E00E941A2076
:102F20001092BD011092BE011092BF011092C0011B
:102F300060E084E090E00E941A2060E085E090E08C
:102F40000E941A2060E086E090E00E941A206FEF55
:102F500087E090E00E941A2040E050E0BA0188E04B
:102F600090E00E942C2060E08DE090E00E941A200A
:102F700040E050E0BA0188E190E00E942C2060E03F
:102F800087E190E00E941A200C9479170C94801726
:102F9000FC01329680910C01882331F080910F0260
:102FA00087FF02C09EE101C096E080E0915028F0CA
:102FB00021912223D9F38F5FF9CF08959C01FC0161
:102FC00032969FEF80E04191461789F09F3F19F4B8
:102FD000411101C0982F8F5F8630A9F79F3F39F0CC
:102FE000F901E90FF11D97FDFA956283089508959F
:102FF000FC01329608962081261301C0108231967A
:10300000E817F907C1F70895262F269526952695E6
:103010002E3168F4FC01E20FF11D677021E030E011
:1030200001C0220F6A95EAF78281282B2283089536
:10303000262F2695269526952E3170F4FC01E20F59
:10304000F11D677021E030E001C0220F6A95EAF7B8
:103050002095828128232283089520910C01222328
:1030600029F020910F0227FD0C9404180C94DE1710
:1030700020910C01222329F020910F0227FD0C94AE
:1030800018180C94F81720910C01FC013296222399
:1030900031F080910F0287FF02C08EE101C086E00F
:1030A000DF011D928A95E9F7089508950C9455184B
:1030B0000E94561880911502843049F11092E70160
:1030C00020E488E190E00FB6F894A8958093600022
:1030D0000FBE2093600080E00E946E060E9456188A
:1030E00083B7817F846083BF83B7816083BF789417
:1030F000889583B78E7F83BF0FB6F894A89580918B
:103100006000886180936000109260000FBE089597
:1031100008950895CF930E9488180E94300A0E9453
:103120008918C0E08C2F0E94DB09892B29F4CF5F1E
:10313000C530C1F780E001C081E0CF9108950895C6
:103140000C949F180E94E7100E94B50B0E946E0617
:103150000C94A0181F920F920FB60F9211248F9308
:103160009F93AF93BF938091E701811113C080912A
:103170000B0290910C02A0910D02B0910E024196AB
:10318000A11DB11D80930B0290930C02A0930D0220
:10319000B0930E02BF91AF919F918F910F900FBE90
:1031A0000F901F90189582E084BD93E095BD9AEF33
:1031B00097BD80936E0008952FB7F89480910B020D
:1031C00090910C02A0910D02B0910E022FBF0895B4
:1031D000CF92DF92EF92FF920F931F932FB7F89445
:1031E00040910B0250910C0260910D0270910E0201
:1031F0002FBF6A017B01EE24FF248C0120E030E028
:10320000C016D106E206F30610F4415051099A01A6
:10321000281B390BC9011F910F91FF90EF90DF9090
:10322000CF90089578941F920F920FB60F921124A9
:103230008F939F93AF93BF9380910B0290910C0259
:10324000A0910D02B0910E020196A11DB11D8093B7
:103250000B0290930C02A0930D02B0930E02BF914B
:10326000AF919F918F910F900FBE0F901F90189567
:1032700081E08093E00080E28093D8001092C90042
:103280008FE19EE40197F1F700C0000087E090EB2A
:10329000DC0180931E0290931F02A0932002B09342
:1032A00021029CE088E10FB6F894A8958093600015
:1032B0000FBE90936000FFCF0E944C17811102C097
:1032C0000E94C6170E9457178093E6010E945F175D
:1032D00090E09093100280930F020E945B17682F7A
:1032E00070E080E090E00C94C21480910802089590
:1032F000089508950895CF93DF93EC010E944D1B2C
:10330000823011F08430D9F580910C01882339F096
:1033100080910F0287FF03C060E282E002C068E094
:1033200081E08093E9008FEF9091E800815095FD56
:1033300006C095ED9A95F1F700008111F5CF8091C7
:10334000E80085FF1CC080910C01811105C040E0A0
:1033500050E068E070E003C070E040E050E0CE0173
:103360000E946A1B8091E8008E778093E80080E2DB
:10337000FE01A8EEB1E001900D928A95E1F7DF9190
:10338000CF91089580911402811109C00E94FF1C01
:103390000E945C1D8091E20084608093E2000895A9
:1033A000109214020895089508950C94A21842E012
:1033B00061EC81E00E94791C42E261EC82E00C94B5
:1033C000791C80911702833009F460C030F4813099
:1033D00071F0823009F499C008958A3009F485C0EB
:1033E0008B3009F46BC0893009F0A7C020C08091F0
:1033F0001602813A09F0A1C08091E800877F80938E
:10340000E80080911A0290911B02892B21F460E25E
:1034100088EE91E003C060E080E090E070E00E9400
:10342000B51B8091E8008B778093E8000895809128
:103430001602813209F081C080911A0290911B021C
:10344000029708F07AC08091E800877F8093E800B7
:103450008091E80082FD05C0809115028111F8CFAE
:103460006CC02091F3008091F20090E0922B0297C3
:1034700029F48091F1008B7F813021F48091F1005B
:10348000809308028091E8008B7753C080911602E8
:10349000813A09F052C080911A0290911B02892B47
:1034A00009F04BC08091E800877F8093E80080910D
:1034B000E80080FFFCCF80910C0136C0809116029D
:1034C0008132D9F580911A0290911B02892BA9F5BE
:1034D0008091E800877F8093E8000E94AE1C809175
:1034E000180280930C010C94E7108091160281322F
:1034F00021F58091E800877F8093E8000E94AE1C50
:103500008091190280930902089580911602813AF0
:10351000A1F48091E800877F8093E8008091E80023
:1035200080FFFCCF809109028093F1008091E80038
:103530008E778093E8000C94AE1C089584B7877F43
:1035400084BF0FB6F894A89580916000886180933D
:103550006000109260000FBE80E8809361001092BE
:1035600061000E94150C0E94FF1C0E945C1D80914E
:10357000E20084608093E20078940E94EB1F0E9436
:103580001D0C82E091E00E94B00B80911502853005
:1035900069F40E945818809113028823B1F30E94A5
:1035A0008A18882391F30E94541BEFCF0E94250CA8
:1035B000ECCF0C94DB1A292F332723303105C9F0C7
:1035C00064F42130310581F02230310509F04CC01E
:1035D0008BE390E02AED3AE04BC02132310521F136
:1035E0002232310589F140C082E190E025E13BE0E3
:1035F0003FC099278130910571F02CF4892BA1F5FA
:10360000E6EDFAE00DC08230910541F0039761F5D7
:10361000EAEAFAE005C0E6ECFAE002C0E0EBFAE024
:10362000849190E09F0124C06115710541F06130E3
:103630007105D1F489E090E025E03BE019C089E014
:1036400090E02CEE3AE014C06115710541F0613054
:10365000710551F48BE390E027E23BE009C080E480
:1036600090E022E63BE004C080E090E020E030E023
:10367000FA013183208308950895CF93C82F0E94C3
:103680003C1BC0930A02CF910895809115028430AB
:1036900011F081E0089582E0089580910A0281117D
:1036A00002C00C94451B089580E189BD82E189BD6B
:1036B00009B400FEFDCF8091D8008F7D8093D800A3
:1036C0008091E00082608093E0008091E00081FDC5
:1036D000FCCF0895CF92DF92EF92FF920F931F934A
:1036E000CF93DF93EC018B016A010E94CD1C811105
:1036F00033C0C114D10439F0F60180819181081BD7
:10370000190BC80FD91FE12CF12C0115110519F166
:103710008091E80085FD16C08091E8008E77809347
:10372000E800C114D10449F0F60180819181E80ECE
:10373000F91EF182E08285E00FC00E94CD1C882333
:1037400021F30AC089918093F10001501109FFEF24
:10375000EF1AFF0ADACF80E0DF91CF911F910F912E
:10376000FF90EF90DF90CF90089520911C02309150
:103770001D022617370748F06115710539F42091AD
:10378000E8002E772093E80001C0B90140E0611500
:103790007105A9F120911502222309F443C02530B7
:1037A00009F442C02091E80023FD40C02091E800C8
:1037B00022FD32C02091E80020FFE9CF4091F300C4
:1037C0002091F20030E0342BFC01CF01611571052E
:1037D00059F02830310540F481918093F100615017
:1037E00071092F5F3F4FF1CF41E02830310509F0DB
:1037F00040E02091E8002E772093E800C8CF4111E7
:10380000C9CF0AC080911502882361F0853061F02C
:103810008091E80083FD0AC08091E80082FFF2CF2A
:1038200080E0089582E0089583E0089581E008959E
:1038300020911C0230911D022617370748F06115B0
:10384000710539F42091E8002E772093E80001C03B
:10385000B901FC0120E06115710591F1809115021B
:10386000882309F440C0853009F43FC08091E80006
:1038700083FD3DC08091E80082FD2FC08091E8006B
:1038800080FFE9CF2091F3008091F20090E0922B2D
:103890006115710559F08830910540F42491209309
:1038A000F1003196615071090196F2CF21E008973D
:1038B00009F020E08091E8008E778093E800CBCF7C
:1038C0002111CCCF0AC080911502882361F0853088
:1038D00061F08091E80083FD0AC08091E80082FFDA
:1038E000F2CF80E0089582E0089583E0089581E0BA
:1038F0000895982F973058F59093E900981739F06C
:103900007091EC002091ED005091F00003C0242F45
:10391000762F50E021FF19C03091EB003E7F3093AD
:10392000EB003091ED003D7F3093ED003091EB00E6
:1039300031603093EB007093EC002093ED005093D6
:10394000F0002091EE0027FF07C09F5FD3CF8F705C
:103950008093E90081E0089580E008958091160247
:1039600087FF11C08091E80082FD05C0809115029B
:103970008111F8CF11C08091E8008B770BC0809146
:103980001502882349F08091E80080FFF8CF8091EC
:10399000E8008E778093E80008952091E40030914C
:1039A000E50095E64091EC00842F817040FF22C035
:1039B0008091E80080FD1CC080911502882391F061
:1039C000853091F08091EB0085FD10C04091E400BE
:1039D0005091E5004217530729F39A01915011F7CE
:1039E00084E0089582E0089583E0089581E00895D9
:1039F00080E008954091E80042FFDECF08950E94E4
:103A00006D1D0E94751DE0EEF0E080818160808375
:103A1000E8EDF0E080818F77808319BCA7EDB0E0FE
:103A20008C918E7F8C9380818F7E80831092140284
:103A300008950F931F93CF93DF930E946D1D0E94F3
:103A4000751DC8EDD0E088818F7788838881806874
:103A5000888388818F7D888319BC1092150210920B
:103A60001102109213021092120200EE10E0F801FF
:103A700080818B7F808388818160888342E060E0E1
:103A800080E00E94791CE1EEF0E080818E7F8083EF
:103A9000E2EEF0E0808181608083808188608083B5
:103AA000F80180818E7F8083888180618883DF91A7
:103AB000CF911F910F910895E8EDF0E080818F7E06
:103AC0008083E7EDF0E080818160808384E082BFC5
:103AD00081E0809314020C94191DE8EDF0E08081E0
:103AE0008E7F80831092E20008951092DA00109287
:103AF000E10008951F920F920FB60F9211242F9399
:103B00003F934F935F936F937F938F939F93AF9365
:103B1000BF93EF93FF938091E10082FF0BC08091F0
:103B2000E20082FF07C08091E1008B7F8093E1007B
:103B30000E94EA1F8091DA0080FF1FC08091D800A8
:103B400080FF1BC08091DA008E7F8093DA00809125
:103B5000D90080FF0DC080E189BD82E189BD09B433
:103B600000FEFDCF81E0809315020E94C21905C0BE
:103B700019BC109215020E94D0198091E10080FFBB
:103B800019C08091E20080FF15C08091E2008E7F15
:103B90008093E2008091E20080618093E200809156
:103BA000D80080628093D80019BC85E0809315020C
:103BB0000E94D4198091E10084FF30C08091E2001E
:103BC00084FF2CC080E189BD82E189BD09B400FE7B
:103BD000FDCF8091D8008F7D8093D8008091E10047
:103BE0008F7E8093E1008091E2008F7E8093E200DF
:103BF0008091E20081608093E2008091110288232D
:103C000011F084E007C08091E30087FD02C081E0ED
:103C100001C083E0809315020E94D5198091E100D4
:103C200083FF29C08091E20083FF25C08091E100DD
:103C3000877F8093E10082E0809315021092110249
:103C40008091E1008E7F8093E1008091E2008E7F81
:103C50008093E2008091E20080618093E20042E084
:103C600060E080E00E94791C8091F0008860809381
:103C7000F0000E94D319FF91EF91BF91AF919F91F6
:103C80008F917F916F915F914F913F912F910F9005
:103C90000FBE0F901F9018951F920F920FB60F92A4
:103CA00011242F933F934F935F936F937F938F9341
:103CB0009F93AF93BF93CF93DF93EF93FF93C09105
:103CC000E900CF708091EC00D82FD17080FDD0E852
:103CD0001092E9008091F000877F8093F000789443
:103CE0000E94901E1092E9008091F00088608093FD
:103CF000F000CD2BCF70C093E900FF91EF91DF91E1
:103D0000CF91BF91AF919F918F917F916F915F9173
:103D10004F913F912F910F900FBE0F901F901895CC
:103D20001F93CF93DF93CDB7DEB7AA970FB6F89462
:103D3000DEBF0FBECDBFE6E1F2E088E08E0F9091CE
:103D4000F10091938E13FBCF0E94E1198091E8005E
:103D500083FF28C18091160290911702492F50E0ED
:103D60004A30510508F01EC1FA01E556FF4F0C9488
:103D70000620803821F0823809F014C108C08091F3
:103D8000120290911302992389F082600FC08091F2
:103D90001A028F70873008F005C18093E900809186
:103DA000EB0085FB882780F91092E9009091E800EC
:103DB000977F9093E8008093F1001092F100D0C0BB
:103DC000282F2D7F09F0EEC0882319F0823061F092
:103DD000E9C080911802813009F0E4C0933009F005
:103DE00080E0809313022EC08091180281112AC0B6
:103DF00080911A028F702FEF280F263008F0D2C062
:103E00008093E9002091EB0020FF1CC0933021F447
:103E10008091EB00806214C09091EB0090619093D0
:103E2000EB0021E030E0A90102C0440F551F8A9544
:103E3000E2F74093EA001092EA008091EB0088607C
:103E40008093EB001092E9008091E800877F8093D7
:103E5000E8000E94AE1CA6C08111A4C010911802F7
:103E60001F778091E3008078812B8093E30080911D
:103E7000E800877F8093E8000E94AE1C8091E800F4
:103E800080FFFCCF8091E30080688093E3001111F4
:103E900002C082E001C083E08093150283C0805895
:103EA000823008F07FC080911802909119028C3DF9
:103EB00053E0950779F583E08A838AE289834FB7D7
:103EC000F894DE01139620E03EE051E2E32FF0E0AB
:103ED00050935700E49120FF03C0E295EF703F5FDD
:103EE000EF708E2F90E0EA3010F0C79601C0C096B8
:103EF0008D939D932F5F243149F74FBF8091E80048
:103F0000877F8093E8006AE270E0CE0101960E940C
:103F1000B51B15C060911A0270911B02AE014F5F74
:103F20005F4F0E94D91ABC01892BE1F19091E80002
:103F3000977F9093E80089819A810E94181C809154
:103F4000E8008B778093E8002DC0803859F5809188
:103F5000E800877F8093E800809111028093F10050
:103F60008091E8008E7773CF81111CC09091180268
:103F70009230C0F48091E800877F8093E8009093AE
:103F800011020E94AE1C80911102811106C0809125
:103F9000E30087FD02C081E001C084E08093150248
:103FA0000E94D7198091E80083FF0AC08091E80041
:103FB000877F8093E8008091EB0080628093EB0024
:103FC000AA960FB6F894DEBF0FBECDBFDF91CF919A
:103FD0001F9108950895CF93809115028823A1F031
:103FE000C091E900CF709091EC00892F817090FD15
:103FF00080E8C82B1092E9008091E80083FD0E94C0
:10400000901ECF70C093E900CF910895EE0FFF1F6F
:104010000590F491E02D0994F999FECF92BD81BDF0
:10402000F89A992780B50895A8E1B0E042E050E001
:104030000C944020262FF999FECF92BD81BDF89AAD
:10404000019700B4021639F01FBA20BD0FB6F894DC
:10405000FA9AF99A0FBE08950396272F0E941B2003
:104060000E941A20252F0E941B20242F0C941B2015
:104070000196272F0E941B200C941A20DC01CB01F3
:10408000FC01F999FECF06C0F2BDE1BDF89A319668
:1040900000B40D9241505040B8F70895F894FFCF06
:1040A000C30175197B19781979197A1901353637D1
:1040B00066679091929394959697F0F130313233F0
:0240C0003400CA
:00000001FF
